{
  "contractName": "Election",
  "abi": [
    {
      "constant": true,
      "inputs": [],
      "name": "currentContenderID",
      "outputs": [
        {
          "name": "",
          "type": "uint256"
        }
      ],
      "payable": false,
      "stateMutability": "view",
      "type": "function",
      "signature": "0x352a96f1"
    },
    {
      "constant": true,
      "inputs": [
        {
          "name": "",
          "type": "uint256"
        }
      ],
      "name": "contender",
      "outputs": [
        {
          "name": "fullName",
          "type": "string"
        },
        {
          "name": "description",
          "type": "string"
        },
        {
          "name": "voteCounter",
          "type": "uint256"
        }
      ],
      "payable": false,
      "stateMutability": "view",
      "type": "function",
      "signature": "0xe0a8bf85"
    },
    {
      "constant": true,
      "inputs": [],
      "name": "admin",
      "outputs": [
        {
          "name": "",
          "type": "address"
        }
      ],
      "payable": false,
      "stateMutability": "view",
      "type": "function",
      "signature": "0xf851a440"
    },
    {
      "inputs": [],
      "payable": false,
      "stateMutability": "nonpayable",
      "type": "constructor",
      "signature": "constructor"
    },
    {
      "constant": false,
      "inputs": [
        {
          "name": "_fullName",
          "type": "string"
        },
        {
          "name": "_description",
          "type": "string"
        }
      ],
      "name": "registerContender",
      "outputs": [],
      "payable": false,
      "stateMutability": "nonpayable",
      "type": "function",
      "signature": "0xcc4d2509"
    },
    {
      "constant": false,
      "inputs": [
        {
          "name": "_fullName",
          "type": "string"
        }
      ],
      "name": "vote",
      "outputs": [
        {
          "name": "",
          "type": "string"
        },
        {
          "name": "",
          "type": "uint256"
        }
      ],
      "payable": false,
      "stateMutability": "nonpayable",
      "type": "function",
      "signature": "0xfc36e15b"
    },
    {
      "constant": true,
      "inputs": [
        {
          "name": "_fullName",
          "type": "string"
        }
      ],
      "name": "getNoOfVoted",
      "outputs": [
        {
          "name": "",
          "type": "uint256"
        }
      ],
      "payable": false,
      "stateMutability": "view",
      "type": "function",
      "signature": "0x04f15af6"
    },
    {
      "constant": true,
      "inputs": [],
      "name": "getWinner",
      "outputs": [
        {
          "name": "",
          "type": "string"
        },
        {
          "name": "",
          "type": "string"
        },
        {
          "name": "",
          "type": "uint256"
        }
      ],
      "payable": false,
      "stateMutability": "view",
      "type": "function",
      "signature": "0x8e7ea5b2"
    }
  ],
  "bytecode": "0x60806040523480156200001157600080fd5b50336000806101000a81548173ffffffffffffffffffffffffffffffffffffffff021916908373ffffffffffffffffffffffffffffffffffffffff160217905550620000d76040805190810160405280600481526020017f416c6578000000000000000000000000000000000000000000000000000000008152506040805190810160405280600581526020017f5768697465000000000000000000000000000000000000000000000000000000815250620001e7640100000000026401000000009004565b6200015c6040805190810160405280600481526020017f4c656e61000000000000000000000000000000000000000000000000000000008152506040805190810160405280600381526020017f5265640000000000000000000000000000000000000000000000000000000000815250620001e7640100000000026401000000009004565b620001e16040805190810160405280600d81526020017f4469616e6120436865726e7961000000000000000000000000000000000000008152506040805190810160405280600581526020017f477265656e000000000000000000000000000000000000000000000000000000815250620001e7640100000000026401000000009004565b6200052c565b600015156004836040518082805190602001908083835b602083101515620002255780518252602082019150602081019050602083039250620001fe565b6001836020036101000a038019825116818451168082178552505050505050905001915050908152602001604051809103902060009054906101000a900460ff161515141515620002de576040517f08c379a000000000000000000000000000000000000000000000000000000000815260040180806020018281038252601a8152602001807f6120636f6e74656e64657220616c72656164792061646465642000000000000081525060200191505060405180910390fd5b60016004836040518082805190602001908083835b6020831015156200031a5780518252602082019150602081019050602083039250620002f3565b6001836020036101000a038019825116818451168082178552505050505050905001915050908152602001604051809103902060006101000a81548160ff0219169083151502179055506003600081546001019190508190556002836040518082805190602001908083835b602083101515620003ad578051825260208201915060208101905060208303925062000386565b6001836020036101000a038019825116818451168082178552505050505050905001915050908152602001604051809103902081905550600160606040519081016040528084815260200183815260200160008152509080600181540180825580915050906001820390600052602060002090600302016000909192909190915060008201518160000190805190602001906200044c9291906200047d565b5060208201518160010190805190602001906200046b9291906200047d565b50604082015181600201555050505050565b828054600181600116156101000203166002900490600052602060002090601f016020900481019282601f10620004c057805160ff1916838001178555620004f1565b82800160010185558215620004f1579182015b82811115620004f0578251825591602001919060010190620004d3565b5b50905062000500919062000504565b5090565b6200052991905b80821115620005255760008160009055506001016200050b565b5090565b90565b611667806200053c6000396000f3fe608060405260043610610083576000357c0100000000000000000000000000000000000000000000000000000000900463ffffffff16806304f15af614610088578063352a96f1146101225780638e7ea5b21461014d578063cc4d250914610250578063e0a8bf851461032b578063f851a44014610452578063fc36e15b146104a9575b600080fd5b34801561009457600080fd5b5061010c600480360360208110156100ab57600080fd5b81019080803590602001906401000000008111156100c857600080fd5b8201836020820111156100da57600080fd5b803590602001918460018302840111640100000000831117156100fc57600080fd5b90919293919293905050506105af565b6040518082815260200191505060405180910390f35b34801561012e57600080fd5b50610137610759565b6040518082815260200191505060405180910390f35b34801561015957600080fd5b5061016261075f565b604051808060200180602001848152602001838103835286818151815260200191508051906020019080838360005b838110156101ac578082015181840152602081019050610191565b50505050905090810190601f1680156101d95780820380516001836020036101000a031916815260200191505b50838103825285818151815260200191508051906020019080838360005b838110156102125780820151818401526020810190506101f7565b50505050905090810190601f16801561023f5780820380516001836020036101000a031916815260200191505b509550505050505060405180910390f35b34801561025c57600080fd5b506103296004803603604081101561027357600080fd5b810190808035906020019064010000000081111561029057600080fd5b8201836020820111156102a257600080fd5b803590602001918460018302840111640100000000831117156102c457600080fd5b9091929391929390803590602001906401000000008111156102e557600080fd5b8201836020820111156102f757600080fd5b8035906020019184600183028401116401000000008311171561031957600080fd5b9091929391929390505050610b70565b005b34801561033757600080fd5b506103646004803603602081101561034e57600080fd5b8101908080359060200190929190505050610ccc565b604051808060200180602001848152602001838103835286818151815260200191508051906020019080838360005b838110156103ae578082015181840152602081019050610393565b50505050905090810190601f1680156103db5780820380516001836020036101000a031916815260200191505b50838103825285818151815260200191508051906020019080838360005b838110156104145780820151818401526020810190506103f9565b50505050905090810190601f1680156104415780820380516001836020036101000a031916815260200191505b509550505050505060405180910390f35b34801561045e57600080fd5b50610467610e35565b604051808273ffffffffffffffffffffffffffffffffffffffff1673ffffffffffffffffffffffffffffffffffffffff16815260200191505060405180910390f35b3480156104b557600080fd5b5061052d600480360360208110156104cc57600080fd5b81019080803590602001906401000000008111156104e957600080fd5b8201836020820111156104fb57600080fd5b8035906020019184600183028401116401000000008311171561051d57600080fd5b9091929391929390505050610e5a565b6040518080602001838152602001828103825284818151815260200191508051906020019080838360005b83811015610573578082015181840152602081019050610558565b50505050905090810190601f1680156105a05780820380516001836020036101000a031916815260200191505b50935050505060405180910390f35b600082828080601f016020809104026020016040519081016040528093929190818152602001838380828437600081840152601f19601f820116905080830192505050505050506004816040518082805190602001908083835b60208310151561062e5780518252602082019150602081019050602083039250610609565b6001836020036101000a038019825116818451168082178552505050505050905001915050908152602001604051809103902060009054906101000a900460ff1615156106e3576040517f08c379a000000000000000000000000000000000000000000000000000000000815260040180806020018281038252601d8152602001807f6120636f6e74656e646572206973206e6f7420617661696c61626c652000000081525060200191505060405180910390fd5b600161073285858080601f016020809104026020016040519081016040528093929190818152602001838380828437600081840152601f19601f8201169050808301925050505050505061118f565b81548110151561073e57fe5b90600052602060002090600302016002015491505092915050565b60035481565b606080600060018054905060001015156107e1576040517f08c379a00000000000000000000000000000000000000000000000000000000081526004018080602001828103825260148152602001807f30203c20636f6e74656e6465722e6c656e67746800000000000000000000000081525060200191505060405180910390fd5b60008090506107ee611574565b600160008154811015156107fe57fe5b906000526020600020906003020160606040519081016040529081600082018054600181600116156101000203166002900480601f0160208091040260200160405190810160405280929190818152602001828054600181600116156101000203166002900480156108b15780601f10610886576101008083540402835291602001916108b1565b820191906000526020600020905b81548152906001019060200180831161089457829003601f168201915b50505050508152602001600182018054600181600116156101000203166002900480601f0160208091040260200160405190810160405280929190818152602001828054600181600116156101000203166002900480156109535780601f1061092857610100808354040283529160200191610953565b820191906000526020600020905b81548152906001019060200180831161093657829003601f168201915b50505050508152602001600282015481525050905060008090505b600180549050811015610b4d578260018281548110151561098b57fe5b9060005260206000209060030201600201541115610b40576001818154811015156109b257fe5b90600052602060002090600302016002015492506001818154811015156109d557fe5b906000526020600020906003020160606040519081016040529081600082018054600181600116156101000203166002900480601f016020809104026020016040519081016040528092919081815260200182805460018160011615610100020316600290048015610a885780601f10610a5d57610100808354040283529160200191610a88565b820191906000526020600020905b815481529060010190602001808311610a6b57829003601f168201915b50505050508152602001600182018054600181600116156101000203166002900480601f016020809104026020016040519081016040528092919081815260200182805460018160011615610100020316600290048015610b2a5780601f10610aff57610100808354040283529160200191610b2a565b820191906000526020600020905b815481529060010190602001808311610b0d57829003601f168201915b5050505050815260200160028201548152505091505b808060010191505061096e565b508060000151816020015182604001518292508191509450945094505050909192565b6000809054906101000a900473ffffffffffffffffffffffffffffffffffffffff1673ffffffffffffffffffffffffffffffffffffffff163373ffffffffffffffffffffffffffffffffffffffff16141515610c34576040517f08c379a000000000000000000000000000000000000000000000000000000000815260040180806020018281038252600a8152602001807f6f6e6c792061646d696e0000000000000000000000000000000000000000000081525060200191505060405180910390fd5b610cc684848080601f016020809104026020016040519081016040528093929190818152602001838380828437600081840152601f19601f8201169050808301925050505050505083838080601f016020809104026020016040519081016040528093929190818152602001838380828437600081840152601f19601f820116905080830192505050505050506112e9565b50505050565b600181815481101515610cdb57fe5b9060005260206000209060030201600091509050806000018054600181600116156101000203166002900480601f016020809104026020016040519081016040528092919081815260200182805460018160011615610100020316600290048015610d875780601f10610d5c57610100808354040283529160200191610d87565b820191906000526020600020905b815481529060010190602001808311610d6a57829003601f168201915b505050505090806001018054600181600116156101000203166002900480601f016020809104026020016040519081016040528092919081815260200182805460018160011615610100020316600290048015610e255780601f10610dfa57610100808354040283529160200191610e25565b820191906000526020600020905b815481529060010190602001808311610e0857829003601f168201915b5050505050908060020154905083565b6000809054906101000a900473ffffffffffffffffffffffffffffffffffffffff1681565b6060600083838080601f016020809104026020016040519081016040528093929190818152602001838380828437600081840152601f19601f820116905080830192505050505050506004816040518082805190602001908083835b602083101515610edb5780518252602082019150602081019050602083039250610eb6565b6001836020036101000a038019825116818451168082178552505050505050905001915050908152602001604051809103902060009054906101000a900460ff161515610f90576040517f08c379a000000000000000000000000000000000000000000000000000000000815260040180806020018281038252601d8152602001807f6120636f6e74656e646572206973206e6f7420617661696c61626c652000000081525060200191505060405180910390fd5b60001515600560003373ffffffffffffffffffffffffffffffffffffffff1673ffffffffffffffffffffffffffffffffffffffff16815260200190815260200160002060009054906101000a900460ff161515141515611058576040517f08c379a00000000000000000000000000000000000000000000000000000000081526004018080602001828103825260178152602001807f6120706572736f6e20616c726561647920766f7465642000000000000000000081525060200191505060405180910390fd5b6001600560003373ffffffffffffffffffffffffffffffffffffffff1673ffffffffffffffffffffffffffffffffffffffff16815260200190815260200160002060006101000a81548160ff0219169083151502179055506000600161110187878080601f016020809104026020016040519081016040528093929190818152602001838380828437600081840152601f19601f8201169050808301925050505050505061118f565b81548110151561110d57fe5b9060005260206000209060030201905080600201600081548092919060010191905055508585826002015482828080601f016020809104026020016040519081016040528093929190818152602001838380828437600081840152601f19601f8201169050808301925050505050505091509091509350935050509250929050565b6000806002836040518082805190602001908083835b6020831015156111ca57805182526020820191506020810190506020830392506111a5565b6001836020036101000a038019825116818451168082178552505050505050905001915050908152602001604051809103902054111515611273576040517f08c379a00000000000000000000000000000000000000000000000000000000081526004018080602001828103825260168152602001807f6e6f742076616c696420636f6e74656e6465722049440000000000000000000081525060200191505060405180910390fd5b60016002836040518082805190602001908083835b6020831015156112ad5780518252602082019150602081019050602083039250611288565b6001836020036101000a038019825116818451168082178552505050505050905001915050908152602001604051809103902054039050919050565b600015156004836040518082805190602001908083835b6020831015156113255780518252602082019150602081019050602083039250611300565b6001836020036101000a038019825116818451168082178552505050505050905001915050908152602001604051809103902060009054906101000a900460ff1615151415156113dd576040517f08c379a000000000000000000000000000000000000000000000000000000000815260040180806020018281038252601a8152602001807f6120636f6e74656e64657220616c72656164792061646465642000000000000081525060200191505060405180910390fd5b60016004836040518082805190602001908083835b60208310151561141757805182526020820191506020810190506020830392506113f2565b6001836020036101000a038019825116818451168082178552505050505050905001915050908152602001604051809103902060006101000a81548160ff0219169083151502179055506003600081546001019190508190556002836040518082805190602001908083835b6020831015156114a85780518252602082019150602081019050602083039250611483565b6001836020036101000a03801982511681845116808217855250505050505090500191505090815260200160405180910390208190555060016060604051908101604052808481526020018381526020016000815250908060018154018082558091505090600182039060005260206000209060030201600090919290919091506000820151816000019080519060200190611545929190611596565b506020820151816001019080519060200190611562929190611596565b50604082015181600201555050505050565b6060604051908101604052806060815260200160608152602001600081525090565b828054600181600116156101000203166002900490600052602060002090601f016020900481019282601f106115d757805160ff1916838001178555611605565b82800160010185558215611605579182015b828111156116045782518255916020019190600101906115e9565b5b5090506116129190611616565b5090565b61163891905b8082111561163457600081600090555060010161161c565b5090565b9056fea165627a7a7230582083fd7b555a4cee010f151db9b6d070ac9f93df02a2ebe80639ab06030bb58f1a0029",
  "source": "pragma solidity ^0.5.0;\r\n\r\ncontract IElection{\r\n      function vote(string calldata _fullName) external returns( string memory,  uint256);\r\n      function registerContender(string calldata _fullName, string calldata _description) external;\r\n      function getNoOfVoted(string calldata _fullName) external view returns (uint256);\r\n      function getWinner() external view returns (string memory, string memory, uint256);\r\n}\r\n\r\ncontract Election is IElection{\r\n    \r\n    address public admin;\r\n    \r\n    struct ContenderData{\r\n        string fullName;\r\n        string description;\r\n        uint256 voteCounter;\r\n    }\r\n    \r\n    ContenderData [] public contender;\r\n  //  mapping(string => ContenderData) contender;\r\n    mapping(string => uint256) contenderId;\r\n    uint256 public currentContenderID;\r\n    mapping(string => bool) contenderRegistered;\r\n     \r\n    mapping(address => bool) voters;\r\n    \r\n    constructor()public {\r\n        admin = msg.sender;\r\n        \r\n        addContender(\"Alex\", \"White\" );\r\n        addContender(\"Lena\", \"Red\" );\r\n        addContender(\"Diana Chernya\", \"Green\" );\r\n    }\r\n    \r\n    function registerContender(string calldata _fullName, string calldata _description) external onlyAdmin{\r\n        addContender(_fullName, _description);\r\n    }\r\n    \r\n     function addContender(string memory _fullName, string memory _description) private {\r\n        require(contenderRegistered[_fullName] == false, \"a contender already added \");\r\n        \r\n        contenderRegistered[_fullName] = true;\r\n  \r\n        contenderId[_fullName] = ++currentContenderID;\r\n        \r\n        contender.push(ContenderData({fullName:_fullName, description: _description, voteCounter:0}));\r\n        \r\n     }\r\n    \r\n    function vote(string calldata _fullName) external  NotContender(_fullName) returns(string memory, uint256) {\r\n        require(voters[msg.sender] == false, \"a person already voted \");\r\n        \r\n        voters[msg.sender] = true;\r\n           \r\n        ContenderData storage voted = contender[getContenderIndex(_fullName)];\r\n        \r\n        voted.voteCounter++;\r\n     \r\n        return (_fullName, voted.voteCounter);\r\n    }\r\n    \r\n\r\n    function getNoOfVoted(string calldata _fullName) external view NotContender(_fullName)  returns (uint256){\r\n        return contender[getContenderIndex(_fullName)].voteCounter;\r\n    }\r\n    function getWinner() external view returns (string memory,string memory, uint256){\r\n        require(0 < contender.length, \"0 < contender.length\");\r\n        uint256 max = 0;\r\n        ContenderData memory winner = contender[0];\r\n        for(uint256 i = 0; i < contender.length; i++){\r\n            if(contender[i].voteCounter > max){\r\n               max = contender[i].voteCounter;\r\n               winner = contender[i];\r\n            }\r\n        }\r\n        return(winner.fullName, winner.description, winner.voteCounter);\r\n    }\r\n    \r\n    function getContenderIndex(string memory _fullName) private view returns(uint256){\r\n        require(contenderId[_fullName]  > 0, \"not valid contender ID\");\r\n        return contenderId[_fullName] - 1;\r\n    }\r\n    \r\n    modifier notAdmin(){\r\n        require(msg.sender != admin, \"admin cannot vote\");\r\n        _;\r\n    }\r\n    \r\n    modifier onlyAdmin(){\r\n        require(msg.sender == admin, \"only admin\");\r\n        _;\r\n    }\r\n    \r\n    modifier NotContender(string memory _fullName){\r\n        require(contenderRegistered[_fullName], \"a contender is not available \");\r\n        _;\r\n    }\r\n}\r\n",
  "sourcePath": "D:/MyProgrames/blockchain/ethereum/election_2019/contracts/Election.sol",
  "compiler": {
    "name": "solc",
    "version": "0.5.0+commit.1d4f565a.Emscripten.clang"
  },
  "schemaVersion": "3.0.1",
  "updatedAt": "2019-01-23T11:17:30.683Z",
  "devdoc": {
    "methods": {}
  },
  "userdoc": {
    "methods": {}
  }
}